:100000000C949A060C94C81C0C94F51C0C94C20613
:100010000C94C2060C94C2060C94C2060C9451199E
:100020000C94C2060C94C2060C94C2060C943619A9
:100030000C94C2060C94C2060C941B190C94C206B4
:100040000C94221D0C94C2060C94351F0C94831F33
:100050000C94C2060C94C2060C94C2060C94C20600
:100060000C9466150C94C206544E594348524F4E98
:10007000005345542054494D4500534554204441B4
:1000800054450053455420414C20200053455420F2
:1000900032344852005345542044535420005345B1
:1000A000542044464C5400444F4E4520202020000C
:1000B000904E912800D680819050913400D6808156
:1000C000904B912A006B80904B006B819136006BB6
:1000D000809047006B81809127904A006B80904907
:1000E000006B81809133904700D68180912C90479E
:1000F00000D681809138904900D681809125904A20
:1001000000D681809131904A006B809049006B81CC
:1001100080912A9047006B809049006B81809136D6
:10012000904B006B80904E006B818091239050002B
:100130006B80904B006B8180912F904E006B809074
:1001400049006B81809123904B006B809047006B3E
:100150008180912F9049006B809047006B81809146
:1001600028904B00D681809134904E00D6818091AA
:100170002A9050006B80904B006B81809136904E9E
:10018000006B809049006B81809127904B006B80C1
:100190009047006B818091339049006B80904B00B9
:1001A0006B8180912C904A006B809049006B81801C
:1001B00091389047006B809049006B818091259029
:1001C0004A00D6818091319047006B809049006B46
:1001D0008180912A904A006B80904E006B818091C3
:1001E000369049006B80904B006B81809123904941
:1001F000006B809047006B8180912F904900D681E1
:10020000809123904700D68180912F904900D6811C
:10021000809128904E00D681809134905000D681F4
:1002200080912A904B006B80904B006B819136003F
:100230006B809047006B81809127904A006B809083
:1002400049006B81809133904700D68180912C903A
:100250004700D681809138904900D68180912590C1
:100260004A00D681809131904A006B809049006BA2
:100270008180912A9047006B809049006B8180912A
:1002800036904B006B80904E006B81809123905094
:10029000006B80904B006B8180912F904E006B80A3
:1002A0009049006B81809123904B006B80904700B8
:1002B0006B8180912F9049006B809047006B81800B
:1002C0009128904B00D681809134904E00D6818049
:1002D000912A9050006B80904B006B8180913690FA
:1002E0004E006B809049006B81809127904B006B92
:1002F000809047006B818091339049006B80904BD8
:10030000006B8180912C904A006B809049006B813A
:100310008091389047006B809049006B81809125D7
:10032000904A00D6818091319047006B80904900BF
:100330006B8180912A904A006B80904E006B818087
:1003400091369049006B80904B006B818091239097
:1003500049006B809047006B8180912F904900D6B7
:1003600081809123904700D68180912F904700D6BD
:1003700081809134904700D6818091389042006B03
:10038000809044006B8180913B904700D6818091A2
:10039000409042006B809044006B81809133904785
:1003A000006B809049006B81809136904B006B8090
:1003B0009047006B80904C006B80904B006B81806D
:1003C000913F904C006B80904E006B8180913190FA
:1003D0004700D681809134904700D6818091389033
:1003E00042006B809044006B8180913D9047006B90
:1003F000809042006B80902F006B006B81913300E6
:100400006B006B819136006B006B81913B006B0040
:100410006B81913400D6819138006B006B81913BE8
:1004200000D6819140006B006B8081913390470032
:100430006B809047006B818091369049006B809073
:100440004B006B8180913B9047006B809042006B2A
:100450008180913F9044006B809042006B8180913D
:1004600031904700D6818091349047006B80904650
:10047000006B818091389047006B809042006B81C7
:1004800080913D9044006B809047006B80904C00C1
:100490006B80904B006B81809133904C006B80900F
:1004A0004E006B81809136904700D68180913B90C1
:1004B0004600D681809134904700D6818091389053
:1004C00042006B809044006B8180913B904700D646
:1004D000818091409042006B809044006B818091BC
:1004E000339047006B809049006B81809136904B30
:1004F000006B809047006B80904C006B80904B00AD
:100500006B8180913F904C006B80904E006B81809E
:100510009131904700D681809134904700D68180F8
:1005200091389042006B809044006B8180913D90A7
:1005300047006B809042006B80902F006B006B81B6
:100540009133006B006B819136006B006B81913BA6
:10055000006B006B81913400D6819138006B006B89
:1005600081913B00D6819140006B006B808191337B
:100570009047006B809047006B81809136904900D6
:100580006B80904B006B8180913B9047006B80901B
:1005900042006B8180913F9044006B809042006BE1
:1005A00081809131904700D6818091349047006BD3
:1005B000809046006B818091389047006B8090421C
:1005C000006B8180913D9044006B809047006B8070
:1005D000904C006B80904B006B81809133904C006D
:1005E0006B80904E006B81809136904700D6818061
:1005F000913B904900D681809128904E00D6818011
:100600009134905000D68180912A904B006B80905D
:100610004B006B819136006B809047006B8180911D
:1006200027904A006B809049006B818091339047FE
:1006300000D68180912C904700D6818091389049D6
:1006400000D681809125904A00D681809131904AD0
:10065000006B809049006B8180912A9047006B80ED
:100660009049006B81809136904B006B80904E00DA
:100670006B818091239050006B80904B006B818048
:10068000912F904E006B809049006B818091239058
:100690004B006B809047006B8180912F9049006BDD
:1006A000809047006B81809128904B00D68180918B
:1006B00034904E00D68180912A9050006B80904BF0
:1006C000006B81809136904E006B809049006B8169
:1006D000809127904B006B809047006B8180913315
:1006E0009049006B80904B006B8180912C904A0068
:1006F0006B809049006B818091389047006B8090AF
:1007000049006B81809125904A00D681809131907B
:1007100047006B809049006B8180912A904A006B62
:1007200080904E006B818091369049006B80904B99
:10073000006B818091239049006B809047006B8112
:1007400080912F904900D681809123904700D681D7
:1007500080912F904900D681809128904E00D681BB
:10076000809134905000D68180912A904B006B800C
:10077000904B006B819136006B809047006B8180BD
:100780009127904A006B809049006B818091339053
:100790004700D68180912C904700D6818091389077
:1007A0004900D681809125904A00D6818091319070
:1007B0004A006B809049006B8180912A9047006BC2
:1007C000809049006B81809136904B006B80904EF9
:1007D000006B818091239050006B80904B006B8167
:1007E00080912F904E006B809049006B8180912307
:1007F000904B006B809047006B8180912F90490057
:100800006B809047006B81809128904B00D681804F
:100810009134904E00D68180912A9050006B809048
:100820004B006B81809136904E006B809049006B3D
:1008300081809127904B006B809047006B81809165
:10084000339049006B80904B006B8180912C904AD3
:10085000006B809049006B818091389047006B80DD
:100860009049006B81809125904A00D6818091311A
:100870009047006B809049006B8180912A904A00DC
:100880006B80904E006B818091369049006B809018
:100890004B006B818091239049006B809047006BE7
:1008A0008180912F904900D681809123904700D676
:1008B0008180912F904700D681809134904700D657
:1008C000818091389042006B809044006B818091D0
:1008D0003B904700D6818091409042006B809044CD
:1008E000006B818091339047006B809049006B8151
:1008F000809136904B006B809047006B80904C004D
:100900006B80904B006B8180913F904C006B80908E
:100910004E006B81809131904700D6818091349058
:100920004700D6818091389042006B809044006BE4
:100930008180913D9047006B809042006B80902FAA
:10094000006B006B819133006B006B819136006B03
:10095000006B81913B006B006B81913400D68191DB
:1009600038006B006B81913B00D6819140006B0099
:100970006B808191339047006B809047006B818042
:1009800091369049006B80904B006B8180913B9039
:1009900047006B809042006B8180913F9044006BD8
:1009A000809042006B81809131904700D681809188
:1009B000349047006B809046006B8180913890475F
:1009C000006B809042006B8180913D9044006B8071
:1009D0009047006B80904C006B80904B006B818047
:1009E0009133904C006B80904E006B8180913690DB
:1009F0004700D68180913B904600D681809134900B
:100A00004700D6818091389042006B809044006B03
:100A10008180913B904700D6818091409042006B4D
:100A2000809044006B818091339047006B809049A7
:100A3000006B81809136904B006B809047006B80FB
:100A4000904C006B80904B006B8180913F904C00EC
:100A50006B80904E006B81809131904700D68180F1
:100A60009134904700D6818091389042006B8090FD
:100A700044006B8180913D9047006B809042006BF9
:100A800080902F006B006B819133006B006B819124
:100A900036006B006B81913B006B006B81913400E1
:100AA000D6819138006B006B81913B00D6819140DB
:100AB000006B006B808191339047006B8090470002
:100AC0006B818091369049006B80904B006B8180E8
:100AD000913B9047006B809042006B8180913F90EA
:100AE00044006B809042006B81809131904700D62A
:100AF000818091349047006B809046006B8180919B
:100B0000389047006B809042006B8180913D90440B
:100B1000006B809047006B80904C006B80904B0086
:100B20006B81809133904C006B80904E006B818084
:100B30009136904700D68180913B904900D68180C4
:100B4000F0680071007A0083008C0095009E00A779
:100B5000007E306D79335B5F707F7B771F0D3D4F7B
:100B6000470000000000000000000000000000003E
:100B70000000000000000000000000000080018074
:100B8000007E306D79335B5F707F7B00000000007A
:100B90000000771F0D3D4F475F37063C130E491588
:100BA0001D677C055B0F3E273F253B2500000000AD
:100BB0000800771F0D3D4F4700370000000E000072
:100BC00000670000000000000000000000000000BE
:100BD00000020100100011001200130015001600A1
:100BE000170018001A001C001D001F002100230020
:100BF0002500270029002C002E003100340037008A
:100C00003A003E004100450049004E0052005700A6
:100C10005C00620068006E0075007B0083008B0042
:100C200093009C00A500AF00B900C400D000DC0018
:100C3000E900F70006011501260137014A015D01AF
:100C4000720188019F01B801D201EE010B022A0254
:100C50004B026E029302BA02E40210033F037003D8
:100C6000A403DC03170455049704DD042705750568
:100C7000C80520067D06E0064907B8072D08A90823
:100C80002D09B9094D0AEA0A900B400CFA0CC00D67
:100C9000910E6F0F5A1053115B1272139A14D415E0
:100CA00020178018F519801B231DDE1EB420A622F4
:100CB000B524E4263429A72B402E0031EA3300372F
:100CC000453ABC3D68414C456B49C84D68524F5749
:100CD000805C006200000000240027002A00000061
:100CE0000000250028002B00000000002300260043
:100CF000290004040404040404040202020202029F
:100D000003030303030301020408102040800102CF
:100D1000040810200102040810200000000700024F
:100D20000100000304060000000000000000760738
:100D30000214EF2011241FBECFEFD8E0DEBFCDBFDD
:100D400011E0A0E0B1E0E2E1F6E402C005900D920E
:100D5000A432B107D9F713E0A4E2B1E001C01D92BB
:100D6000AA37B107E1F71DE0C4E3DDE004C0229734
:100D7000FE010E940323CE32D107C9F70E945622FA
:100D80000C9407230C940000FB01DC0105900D92EC
:100D90000020E1F70895DC0101C06D9341505040FF
:100DA000E0F7089581E08093C8010895482F6AE034
:100DB0000E948422282F30E084E0220F331F8A957E
:100DC000E1F7842F0E948422892F820F08953091A9
:100DD000590140915501442349F0332311F42CE08B
:100DE00006C03D3018F0232F2C5001C0232F822F36
:100DF0006AE00E9484228093CA01822F0E9484228A
:100E000090589093CB012A3028F4442319F080E2C3
:100E10008093CA0120915801822F6AE00E948422A7
:100E20008093CC01822F0E94842290589093CD0110
:100E300020915701822F0E9484228093CE01822F1D
:100E40000E9484229093CF0190E29093D00144239A
:100E500091F080915F013C3030F4882311F081ECF7
:100E600007C081E405C0882311F080ED01C080E552
:100E70008093D10108C080915F01882311F08EE238
:100E8000F7CF9093D10130E23093D2013093D30168
:100E900020915B01822F6AE00E9484228093D4011A
:100EA000822F0E94842290589093D50120915A015C
:100EB000822F0E9484228093D601822F0E94842256
:100EC00090589093D70120915C01822F0E94842238
:100ED0008093D801822F0E9484229093D90130936D
:100EE000DA01809156018093DB0108950F931F93DF
:100EF00084E291E066E029E130E040E050E00E94C9
:100F0000191283E391E067E029E130E040E050E02E
:100F10000E94191282E491E068E029E130E040E0AB
:100F200050E00E94191281E691E00E94231B80E7A5
:100F300091E060E170E04FE050E02EE030E001E051
:100F400010E00E9449131F910F910895FF920F9393
:100F50001F93CF93DF93F82E17E0C62FD0E013C076
:100F6000E653FE4F208127FD02C000E002C020585A
:100F700001E080E791E060E070E0412F50E00E94E6
:100F8000AF121150F394EF2DF0E0CE17DF0744F7C6
:100F9000DF91CF911F910F91FF900895E1E4FBE065
:100FA000659174918AEC91E00E94C40680E067E04C
:100FB0000E94A60768E873E180E090E00E94781D37
:100FC00008950F931F9302EE11E0C80160E070E0F6
:100FD00043E00E949C11C80161E070E041E00E9482
:100FE0009C11C80162E070E04AE00E949C11C801B7
:100FF00063E070E041E00E949C11C80165E070E090
:1010000040E00E949C11C80164E070E040E00E9452
:101010009C11C80169E070E046E00E949C11C80183
:101020006AE070E040E00E949C11C8016BE070E053
:1010300040E00E949C111F910F9108950F931F9300
:1010400009E212E0C80168E670E00E94C813C80116
:1010500067E00E944A14C80160E10E944A14C80176
:101060000E948D141F910F910895FF920F931F936B
:1010700009E212E0C80168E670E00E94C813C801E6
:1010800060E00E944A14C8010E948D14C80168E6FD
:1010900070E047E050E00E949E14C8010E94DB13FC
:1010A000282F2F7722952F709AE0F92E2F9D9001EF
:1010B00011248F70820F80935701C8010E94DB13A7
:1010C000282F22952F702F9D900111248F70820F51
:1010D00080935801C8010E94DB13282F2F7322959B
:1010E0002F702F9D900111248F70820F80935901D2
:1010F000C8010E94DB13282F22952F702F9D90018D
:1011000011248F70820F80935601C8010E94DB1357
:10111000282F22952F702F9D900111248F70820F00
:1011200080935A01C8010E94DB13282F22952F704B
:101130002F9D900111248F70820F80935B01C80155
:101140000E94DB13282F22952F702F9D90011124D0
:101150008F70820F80935C011F910F91FF90089513
:101160000F931F9309E212E0C80168E670E00E9445
:10117000C813C80160E00E944A14809157010E9480
:10118000D606682F70E06F777070C8010E944A140D
:10119000809158010E94D606682FC8010E944A1407
:1011A000809159010E94D606682F70E06F737070AD
:1011B000C8010E944A14809156010E94D606682FE9
:1011C000C8010E944A1480915A010E94D606682FD5
:1011D000C8010E944A1480915B010E94D606682FC4
:1011E000C8010E944A1480915C010E94D606682FB3
:1011F000C8010E944A14C8010E948D141F910F91CA
:1012000008950F931F9309E212E0C80168E670E0A9
:101210000E94C813C80163E00E944A1480915601DD
:101220000E94D606682FC8010E944A1480915A0174
:101230000E94D606682FC8010E944A1480915B0163
:101240000E94D606682FC8010E944A1480915C0152
:101250000E94D606682FC8010E944A14C8010E9445
:101260008D141F910F910895AF92BF92CF92DF928C
:10127000EF92FF920F931F938AEC91E060E270E08F
:1012800042E150E00E94CB0680915501882329F06D
:1012900081E38093CA0182E304C082E38093CA01A0
:1012A00084E38093CB0180E28093CD0188E4809336
:1012B000CE0182E58093CF0180E067E00E94A6071F
:1012C00010E000E262E3C62E54E3A52E48E4D42EDB
:1012D00032E5E32E21E3B22EFF24F3940E946A1D2F
:1012E0006093DD017093DE018093DF019093E00154
:1012F00054C084E291E00E94E111892B39F084E22C
:1013000091E00E94AE11892B09F45CC082E491E067
:101310000E94E111892B79F082E491E00E94AE11E4
:10132000892B49F480915501882319F010925501B9
:1013300002C0F092550183E391E00E94E111892BF4
:1013400079F083E391E00E94AE11892B49F48091FA
:101350005501882319F01092550102C0F0925501F1
:1013600080915501882329F0B092CA01C092CB0127
:1013700004C0C092CA01A092CB010093CD01D092CB
:10138000CE01E092CF01112321F00093CA01009316
:10139000CB0180E067E00E94A6070E946A1D2091B1
:1013A000DD013091DE014091DF015091E001621BCF
:1013B000730B840B950B683C71058105910508F44E
:1013C00098CF11C082EE91E064E070E04091550149
:1013D0000E949C111F910F91FF90EF90DF90CF9092
:1013E000BF90AF90089580E0112309F481E0182F99
:1013F00075CFAF92BF92CF92DF92EF92FF920F9391
:101400001F9330915D0140915501442349F03323EE
:1014100011F42CE006C03D3018F0232F2C5001C0F1
:10142000232F822F6AE00E9484228093CA01822F98
:101430000E94842290589093CB012A3028F44423B0
:1014400019F080E28093CA0120915E01822F6AE048
:101450000E9484228093CC01822F0E948422909348
:10146000CD0190E29093CE0180915F018093CF01F6
:101470009093D001442341F03C3010F080E501C04E
:1014800081E48093D10102C09093D10180E067E0B4
:101490000E94A60710E0FF24B7E0AB2E00E2A0EA0E
:1014A000DA2EF1E4CF2EE0E5BE2E75E0E72E0E94A5
:1014B0006A1D6093DD017093DE018093DF019093DC
:1014C000E001E6C084E291E00E94E111892B51F035
:1014D00084E291E00E94AE11892B21F4123009F4CC
:1014E000ECC01F5F82E491E00E94E111892BB9F109
:1014F00082E491E00E94AE11892B89F582E491E0AB
:101500004AEF50E060E070E00E94A811113069F0ED
:10151000113018F0123019F510C080915D0187313B
:10152000F0F48F5F80935D011AC080915E018B3370
:10153000B0F48F5F80935E0112C080915F018730AD
:1015400070F4882319F410935F0109C0823019F4F4
:10155000E0925F0104C0853011F4A0925F0183E343
:1015600091E00E94E111892BB9F183E391E00E949F
:10157000AE11892B89F583E391E04AEF50E060E0FA
:1015800070E00E94A811113069F0113018F012308B
:1015900019F510C080915D018823F1F0815080938E
:1015A0005D011AC080915E018823B1F08150809363
:1015B0005E0112C080915F01882371F0873019F4B9
:1015C000E0925F0109C0853019F410935F0104C0F7
:1015D000823011F410925F0130915D01409155010C
:1015E000442349F0332311F42CE006C03D3018F0B9
:1015F000232F2C5001C0232F822F6AE00E948422C7
:101600008093CA01822F0E94842290589093CB012C
:101610002A3020F4442311F00093CA0120915E0186
:10162000822F6AE00E9484228093CC01822F0E9444
:1016300084229093CD010093CE0180915F0180932D
:10164000CF010093D001442341F03C3018F0B09218
:10165000D10105C0C092D10102C00093D101FF2089
:1016600099F0113051F0113018F0123069F40AC0BD
:101670000093CA01D092CB0107C00093CC01009324
:10168000CD0102C00093CF0180E067E00E94A60771
:101690000E946A1D2091DD013091DE014091DF0141
:1016A0005091E001621B730B840B950B683C710534
:1016B0008105910508F406CF21C082EE91E069E032
:1016C00070E040915D010E949C1182EE91E06AE021
:1016D00070E040915E010E949C1182EE91E06BE00F
:1016E00070E040915F010E949C111F910F91FF904B
:1016F000EF90DF90CF90BF90AF90089580E0FF20F3
:1017000009F481E0F82ED3CEDF92EF92FF920F938F
:101710001F9320915101822F6AE00E9484228093BE
:10172000CA01822F0E94842290589093CB0180910D
:10173000520180588093CC0120915301822F0E9446
:1017400084228093CD01822F0E948422905890930E
:10175000CE018091540180588093CF0180E2809324
:10176000D001809100018093D10180E067E00E9468
:10177000A60700E010E090E2E92E80EAF82EDD24D2
:10178000D3940E946A1D6093DD017093DE01809303
:10179000DF019093E001F4C084E291E00E94E11146
:1017A000892B51F084E291E00E94AE11892B21F443
:1017B000043009F4FAC00F5F82E491E00E94E11165
:1017C000892B09F442C082E491E00E94AE11892B7A
:1017D000E1F582E491E04AEF50E060E070E00E94C1
:1017E000A8110230E1F0033028F4002341F0013069
:1017F00061F50DC00330D9F0043039F520C0809177
:1018000051018C3010F58F5F809351011EC0809183
:1018100052018430D0F48F5F8093520116C08091C2
:1018200053018C3090F48F5F809353010EC08091F0
:101830005401843050F48F5F8093540106C080912E
:101840000001882311F4D092000183E391E00E940B
:10185000E111892B09F443C083E391E00E94AE11AA
:10186000892BE9F583E391E04AEF50E060E070E016
:101870000E94A8110230E1F0033028F4002341F067
:10188000013069F50DC00330D9F0043041F520C0B6
:1018900080915101823018F18150809351011FC015
:1018A000809152018230D8F081508093520117C04C
:1018B00080915301823098F08150809353010FC082
:1018C00080915401823058F081508093540107C0B8
:1018D00080910001882319F08150809300012091AC
:1018E0005101822F6AE00E9484228093CA01822FD4
:1018F0000E94842290589093CB018091520180588D
:101900008093CC0120915301822F0E9484228093E6
:10191000CD01822F0E94842290589093CE01809115
:10192000540180588093CF01E092D0018091000152
:101930008093D101112301F10230A1F0033028F48A
:10194000002341F00130C1F40AC0033081F00430BB
:1019500099F410C0E092CA01F092CB010DC0F09250
:10196000CC010AC0E092CD01F092CE0105C0E09218
:10197000CF0102C0E092D10180E067E00E94A6079B
:101980000E946A1D2091DD013091DE014091DF014E
:101990005091E001621B730B840B950B683C710541
:1019A0008105910508F4F8CE3CC082EE91E060E03C
:1019B00070E0409151010E949C1182EE91E061E043
:1019C00070E0409152010E949C1182EE91E062E031
:1019D00070E0409153010E949C1182EE91E063E01F
:1019E00070E0409154010E949C1182EE91E065E00C
:1019F00070E0409100010E949C1181E691E06091AD
:101A000051014091520120915301009154011CE376
:101A1000E12E0E94051B1F910F91FF90EF90DF9028
:101A2000089580E0112309F481E0182FAACEFF92D7
:101A30000F931F9381E691E067E571E00E94461BDA
:101A40008093560188E593E060915B014AE050E0A5
:101A50000E94262288E593E060E20E946F2188E5DB
:101A600093E060915A014AE050E00E94262288E506
:101A700093E060E20E946F2188E593E060915C0151
:101A80004AE050E00E94262288E593E060E20E944E
:101A90006F2188E593E0609156014AE050E00E9492
:101AA00038220E94E7068AE061E10E94A60710E062
:101AB000FF2400E20E946A1D6093DD017093DE0145
:101AC0008093DF019093E001AAC084E291E00E943C
:101AD000E111892B51F084E291E00E94AE11892B33
:101AE00021F4133009F4B0C01F5F82E491E00E943A
:101AF000E111892BB1F182E491E00E94AE11892BB2
:101B000081F582E491E04AEF50E060E070E00E94ED
:101B1000A811113079F0113028F0123099F01330FB
:101B200001F518C080915B018C30D8F48F5F8093F1
:101B30005B0117C080915A018F3198F48F5F8093B9
:101B40005A010FC080915C01833658F48F5F8093F7
:101B50005C0107C080915601873018F48F5F809335
:101B6000560183E391E00E94E111892BB1F183E3F7
:101B700091E00E94AE11892B81F583E391E04AEF59
:101B800050E060E070E00E94A811113079F011304F
:101B900028F0123099F0133001F518C080915B01E4
:101BA0008230D8F0815080935B0117C080915A0138
:101BB000823098F0815080935A010FC080915C016F
:101BC000882359F0815080935C0107C080915601B1
:101BD000823018F08150809356010E94E706FF2062
:101BE000D1F0113061F0113028F0123069F013306B
:101BF00091F40FC00093D4010093D5010CC0009361
:101C0000D6010093D70107C00093D8010093D901F2
:101C100002C00093DB018AE061E10E94A6070E94F6
:101C20006A1D2091DD013091DE014091DF0150916C
:101C3000E001621B730B840B950B683C71058105F9
:101C4000910508F442CF06C00E9401091F910F912F
:101C5000FF90089580E0FF2009F481E0F82E2ACF5C
:101C6000EF92FF920F931F930E9435081091590134
:101C700080910001882331F081E691E067E571E011
:101C80000E948E1CEE2480915901181711F0EE2449
:101C9000E39481E691E067E571E00E94461B809342
:101CA00056010E94E70680E067E00E94A60710E068
:101CB00000E020E2F22E0E946A1D6093DD01709325
:101CC000DE018093DF019093E00198C084E291E00F
:101CD0000E94E111892B89F084E291E00E94AE110B
:101CE000892B59F4123041F40E94B00880915901B7
:101CF000882309F09DC097C01F5F82E491E00E9495
:101D0000E111892B61F182E491E00E94AE11892BEF
:101D100031F582E491E04AEF50E060E070E00E942B
:101D2000A811113069F0113018F01230C1F410C050
:101D300080915901873198F48F5F809359010FC0CA
:101D4000809158018B3358F48F5F8093580107C0FE
:101D5000809157018B3318F48F5F8093570183E391
:101D600091E00E94E111892B61F183E391E00E94EF
:101D7000AE11892B31F583E391E04AEF50E060E04A
:101D800070E00E94A811113069F0113018F0123083
:101D9000C1F410C080915901882399F0815080933B
:101DA00059010FC080915801882359F081508093C8
:101DB000580107C080915701882319F08150809302
:101DC00057010E94E7060023A9F0113051F01130AD
:101DD00018F0123079F40AC0F092CA01F092CB01E7
:101DE00009C0F092CC01F092CD0104C0F092CE0176
:101DF000F092CF0180E067E00E94A6070E946A1D72
:101E00002091DD013091DE014091DF015091E00130
:101E1000621B730B840B950B683C71058105910562
:101E200008F454CF0FC091E0E91611F487E101C026
:101E30008E19809359010E94B0081F910F91FF9055
:101E4000EF90089580E0002309F481E0082F33CF5C
:101E50001F93E3E4FBE0659174918AEC91E00E94AA
:101E6000C40680E067E00E94A60711E083E391E0EA
:101E70000E94E111892BC9F01230B8F083E391E0A0
:101E80000E94AE11892B89F41150E12FF0E0EE0F82
:101E9000FF1FEF5BF44F659174918AEC91E00E9413
:101EA000C40680E067E00E94A60782E491E00E94F9
:101EB000E111892BC9F01730B8F482E491E00E9457
:101EC000AE11892B89F41F5FE12FF0E0EE0FFF1FA9
:101ED000EF5BF44F659174918AEC91E00E94C40627
:101EE00080E067E00E94A60784E291E00E94E11191
:101EF000892B09F4BBCF84E291E00E94AE11892BBB
:101F000009F0B4CF1330A1F0143028F4113051F09F
:101F10001230C9F40AC0153089F0153060F016305F
:101F200091F40FC00E94300E0EC00E94170D0BC01E
:101F30000E94F90908C00E94340905C00E94840B60
:101F400002C00E94E1071F9108951F938091C8016C
:101F50008823C1F00E94350880910001882331F068
:101F600081E691E067E571E00E948E1C81E691E0D8
:101F700067E571E00E94461B809356011092C801EC
:101F80000E94E70620915F01222359F180915701B9
:101F9000882339F59091580180915E01981709F5D1
:101FA0009091590180915D019817D9F4273081F003
:101FB000223039F480915601813051F0873089F414
:101FC00007C0253071F4809156018250853048F465
:101FD00081EE91E060EB70E00E94F91881E080935F
:101FE00060018091DC01609101010E94A6070E94BE
:101FF0006A1D6093DD017093DE018093DF01909391
:10200000E00111E054C08091C8018823C1F00E9412
:10201000350880910001882331F081E691E067E581
:1020200071E00E948E1C81E691E067E571E00E94FC
:10203000461B809356011092C8010E94E70684E275
:1020400091E00E94E111892B41F084E291E00E942D
:10205000AE11892B11F40E94280F8091600181300C
:1020600051F48091C202882331F481EE91E060EB5B
:1020700070E00E94F91882E491E00E94E111892B3E
:10208000B1F082E491E00E94AE11892B81F480913D
:102090006001813031F41092600181EE91E00E9484
:1020A00007198091C901882311F41093C9010E9476
:1020B0006A1D2091DD013091DE014091DF015091D8
:1020C000E001621B730B840B950B683C7105810565
:1020D000910508F498CF8091C901813009F580916C
:1020E000DC018A3040F48F5F8093DC018091010134
:1020F0008F5F809301018091DC018A3089F48091A7
:10210000020190910301181619063CF58A5F904070
:10211000909303018093020120C082E08093C90163
:102120008091C901823001F58091DC01882341F062
:1021300081508093DC0180910101815080930101E5
:102140008091DC01882381F41092C90188E893E131
:10215000909303018093020107C080910201909146
:102160000301892BD1F2DCCF1F910895EF920F93D9
:1021700088E593E040E855E260E070E00E94BE1F11
:1021800086E060E00E940C1E86E061E00E944B1E2B
:1021900087E060E00E940C1E87E061E00E944B1E19
:1021A00088E060E00E940C1E88E061E00E944B1E07
:1021B00083E060E00E940C1E83E061E00E944B1E01
:1021C00081E062ED76E042E050E00E94A51C81EEE5
:1021D00091E06BE00E946F1A81EE91E06CE00E944A
:1021E0006F1A80E791E060E070E040E00E942F13FA
:1021F00080E791E060E070E04CE050E00E940B135B
:1022000080E791E060E070E00E94D81282EE91E0F9
:1022100060E070E00E9495118093510182EE91E0A0
:1022200061E070E00E9495118093520182EE91E08E
:1022300062E070E00E9495118093530182EE91E07C
:1022400063E070E00E9495118093540182EE91E06A
:1022500065E070E00E9495118093000182EE91E0AC
:1022600064E070E00E9495118093550182EE91E048
:1022700069E070E00E94951180935D0182EE91E02B
:102280006AE070E00E94951180935E0182EE91E019
:102290006BE070E00E94951180935F010E94CE0771
:1022A00080E791E060E070E00E94D81289E292E05D
:1022B0000E94A21489E292E068E670E00E94C813CE
:1022C00089E292E06EE00E944A1489E292E06CE1B9
:1022D0000E944A1489E292E00E948D140E941E0816
:1022E00081E691E0609151014091520120915301AA
:1022F000009154015CE3E52E0E94051B0E94350805
:1023000080910001882331F081E691E067E571E07A
:102310000E948E1C81E691E067E571E00E94461BF9
:10232000809356010F91EF900895F999FECF72BDF9
:1023300061BDF89A80B50895F999FECF1FBA72BDB4
:1023400061BD40BD0FB6F894FA9AF99A0FBE089590
:10235000FC0140875187628773870895FC0184855B
:1023600090E008951F93CF93DF93EC018D850E9439
:102370009F1E182F8C858117E9F00E946A1D288105
:1023800039814A815B81621B730B840B950B2C8115
:102390003D814E815F81621773078407950750F076
:1023A0000E946A1D688379838A839B831C8721E04E
:1023B00030E002C020E030E0C901DF91CF911F91F1
:1023C0000895CF93DF93EC010E94B211892B09F598
:1023D00088859985AA85BB850097A105B10529F156
:1023E0000E946A1D288139814A815B81621B730BBF
:1023F000840B950B288539854A855B8562177307A1
:102400008407950790F00E946A1D688379838A8308
:102410009B83188619861A861B8681E08E8721E0A9
:1024200030E0C901DF91CF9108951E8620E030E0B1
:10243000F8CFFF920F931F938C01F62EFC0124839B
:1024400035834683578310861186128613860E9431
:102450006A1DF80160837183828393838F2D0E94AC
:102460009F1EF8018487F5861F910F91FF900895B4
:102470008F929F92AF92BF92CF92DF92EF92FF9294
:102480000F931F93DF93CF9300D0CDB7DEB77C01BE
:1024900049832A83660F771F86E590E0E80EF91ED0
:1024A000F701008111818AEA9FEFE80EF91E000F03
:1024B000111FF701E05CFF4F80E090E002C0119235
:1024C000019680179107DCF38981F701E60FF71F6A
:1024D000EF5BFF4F80838A818293F701EC5AFF4FB5
:1024E000808160E00E944B1E015C1F4F6701C00E9F
:1024F000D11E0F53104090E5892E912C8E0C9F1CFD
:1025000082E5A82EB12CAE0CBF1C0EC001501040AD
:10251000F4018081F501608141E0F60120810E9493
:10252000F21E0894C108D108101611067CF384E548
:1025300090E0E80EF91EF701808161E00E944B1ED9
:102540000F900F90CF91DF911F910F91FF90EF901F
:10255000DF90CF90BF90AF909F908F9008950F9392
:10256000DC0177FD23C0AA5ABF4F8D919C91119732
:10257000A655B04068177907CCF448305105B0F43F
:10258000E22FF0E0EF5AF44F249101112068FB0193
:1025900003E0EE0FFF1F0A95E1F7E40FF51FEA0FC6
:1025A000FB1F20834F5FCD010E9438120F910895C9
:1025B000DF92EF92FF920F931F93CF93DF93EC0183
:1025C0007B0177FD20C0CA5ADF4F88819981C655AB
:1025D000D04068177907BCF48B0153E0000F111F3E
:1025E0005A95E1F70C0F1D1FDD24D394F8011192C9
:1025F0008F01CE01B7014D2D20E00E943812D394F7
:10260000F9E0DF1699F7DF91CF911F910F91FF90BD
:10261000EF90DF900895FC01242F77FD0DC0EA5A5A
:10262000FF4F80819181E655F0406817790724F4C7
:10263000CF014AE00E9438120895FC01242F77FD53
:102640000DC0EA5AFF4F80819181E655F04068172E
:10265000790724F4CF014BE00E9438120895FC0161
:1026600077FD16C0EA5AFF4F80819181E655F04010
:10267000681779076CF4442331F0CF014CE020E077
:102680000E9438120895CF014CE021E00E943812D8
:102690000895CF92DF92EF92FF920F931F93CF9303
:1026A000DF93EC016B01C05BDF4F69937993499332
:1026B000599339832883C455D040C801019708979E
:1026C00010F008E010E0CA5ADF4F19830883C6559E
:1026D000D0408E01005B1F4FF801808161E00E94B5
:1026E0000C1EFE01EE5AFF4F808161E00E940C1E1D
:1026F00074E5E72EF12CEC0EFD1EF701808161E000
:102700000E940C1EF701808161E00E944B1EF801BF
:10271000D182C08280E090E0FE01E80FF91F1082B4
:10272000019680349105C1F700E010E066E5C62E01
:10273000D12CCC0EDD1E1DC0CE01B8014FE020E033
:102740000E943812CE01B80147E050E00E941D13EC
:10275000CE01B80149E020E00E943812CE01B80154
:102760000E94D812CE01B80141E00E942F130F5FE2
:102770001F4FF6018081918108171907ECF2DF9154
:10278000CF911F910F91FF90EF90DF90CF90089520
:1027900081E0809328026093050210922602109235
:1027A000270208952091040230E080910302281B43
:1027B0003109C9010895409103028091040248172C
:1027C00018F02FEF3FEF0AC0E42FF0E0ED51FE4F7D
:1027D0008081282F30E04F5F40930302C9010895A4
:1027E000E091030280910402E81718F0EFEFFFEF89
:1027F00006C0F0E0ED51FE4F8081E82FF0E0CF0100
:102800000895089510922C0210922B0288EE93E006
:10281000A0E0B0E080932D0290932E02A0932F02AF
:10282000B093300288E091E090932A0280932902CD
:102830000895CF92DF92EF92FF920F931F93CF9361
:10284000DF937C016B018A01809128028823A1F02B
:10285000C0E0D0E00DC0D701ED91FC91D601AC0FE6
:10286000BD1F0190F081E02DC7016C910995219663
:10287000C017D10780F304C0CB01642F0E944B1511
:10288000C801DF91CF911F910F91FF90EF90DF90E2
:10289000CF900895DF93CF930F92CDB7DEB7FC01B1
:1028A0006983809128028823C9F0809127028032B1
:1028B00038F081E090E09383828320E030E015C01F
:1028C00080912602E82FF0E0EA5FFD4F9981908326
:1028D0008F5F809326028093270205C0CE01019668
:1028E00061E00E944B1521E030E0C9010F90CF91CB
:1028F000DF9108950F93062F8091050266E072E044
:102900004091270221E00E94F614109226021092B4
:102910002702109228020F91089561E00E947A1414
:102920000895413208F040E2862F63EE71E00E9484
:10293000AD141092030280930402089521E00E94D6
:10294000911408951092030210920402109226022C
:10295000109227020E94F7160895382F413210F086
:1029600040E042C0809135028823E1F791E09093E6
:102970003502209337028FEF8093A20210925D02FE
:10298000415040935E024F5F909336028091360231
:10299000330F832B8093360280913802813041F4CB
:1029A00010923802809136028093BB0085EC01C002
:1029B00085EE8093BC00809135028130E1F38091F7
:1029C0005D02841710F440915D0220E030E00AC0FF
:1029D000FB01E20FF31FD901A35CBD4F8C918083F3
:1029E0002F5F3F4F2417A0F3842F08950F931F9359
:1029F000582F122F413210F081E04AC080913502E9
:102A00008823E1F782E080933502009337028FEF4D
:102A10008093A20210925D0240935E02ADE3B2E0A9
:102A2000FB0102C081918D938E2F861B8417D0F3FA
:102A30001092360280913602550F852B8093360214
:102A400080913802813041F4109238028091360230
:102A50008093BB0085EC01C085EE8093BC00112300
:102A600021F0809135028230E1F38091A2028F3F04
:102A700011F480E00DC08091A202803211F482E056
:102A800007C08091A202803311F084E001C083E08E
:102A90001F910F910895482F613210F081E0089541
:102AA00080913502843011F082E0089560938002B5
:102AB000AFE5B2E0842F9C01F90102C081918D93B2
:102AC0008E2F841B8617D0F380E008951F920F92FB
:102AD0000FB60F9211242F933F934F935F936F93F1
:102AE0007F938F939F93AF93BF93EF93FF938091C7
:102AF000B90090E0887F90708036910509F4F2C0AB
:102B000081369105CCF58832910509F47BC0893274
:102B10009105B4F48031910509F46FC081319105BC
:102B20003CF4009709F447C1089709F04FC165C00C
:102B30008831910509F466C0809709F047C182C0C9
:102B40008034910509F4A4C08134910544F48033A4
:102B5000910509F482C0C89709F038C189C0803551
:102B6000910509F489C08835910509F496C0883427
:102B7000910509F02BC1AEC08839910509F413C144
:102B800089399105ECF48837910509F4ABC0893790
:102B900091054CF48836910509F4A4C0803791055D
:102BA00009F014C19FC08838910509F4FCC0803930
:102BB000910509F49DC08038910509F007C198C0BE
:102BC000803B910509F4C6C0813B91054CF4803AE5
:102BD000910509F49FC0883A910509F0F7C0BAC081
:102BE000803C910509F4E3C0883C910509F4DFC0FD
:102BF000883B910509F0EAC0C2C0809136028093FB
:102C0000BB00CFC090915D0280915E02981768F47E
:102C100090915D02E92FF0E0E35CFD4F80818093AD
:102C2000BB009F5F90935D02BCC0809137028823F8
:102C300009F44BC085ED8093BC008091BC0084FDFD
:102C4000FCCFC2C080E28093A20285ED8093BC00DD
:102C50008091BC0084FDFCCFB7C080E38093A202CA
:102C600085ED8093BC008091BC0084FDFCCFACC09E
:102C700088E38093A2029BC080915D029091BB008B
:102C8000E82FF0E0E35CFD4F90838F5F80935D025F
:102C900090915D0280915E0282C080915D02909170
:102CA000BB00E82FF0E0E35CFD4F90838F5F8093E3
:102CB0005D0280913702882341F085ED8093BC004E
:102CC0008091BC0084FDFCCF7FC081E080933802FE
:102CD00084EA6EC085ED8093BC008091BC0084FDC9
:102CE000FCCF72C083E0809335021092A10259C0DC
:102CF0008091A102803208F056C08091A10290918B
:102D0000BB00E82FF0E0EF57FD4F90838F5F80937B
:102D1000A10247C08091A102803230F4E091A1026B
:102D2000F0E0EF57FD4F108285ED8093BC0080915D
:102D3000BC0084FDFCCF109235026091A102E091AD
:102D40003B02F0913C0281E892E070E0099510921C
:102D5000A1022DC084E08093350210927F02109270
:102D60008002E0913902F0913A0209958091800247
:102D7000882329F481E08093800210925F02909171
:102D80007F02E92FF0E0E15AFD4F80818093BB0084
:102D90009F5F90937F0290917F02809180029817AD
:102DA00010F485EC01C085E88093BC000FC085EC71
:102DB0008093BC0009C01092A20285ED8093BC00F4
:102DC0008091BC0084FDFCCF10923502FF91EF9101
:102DD000BF91AF919F918F917F916F915F914F9133
:102DE0003F912F910F900FBE0F901F90189510924A
:102DF000350281E0809337021092380282E161E06F
:102E00000E944B1E83E161E00E944B1EE9EBF0E063
:102E100080818E7F808380818D7F808388E4809312
:102E2000B80085E48093BC000895DF92EF92FF9292
:102E30000F931F93CF93DF93E82F8091AF02E81792
:102E400008F01CC1F0E0EF52F44FD49067FD6FE73B
:102E5000E62FF0E0EE0FFF1FEC52F44FC591D49136
:102E6000DD2021F082E0D81609F0ADC0683108F409
:102E700005C17E0100E010E060E074E284EF90E0C4
:102E8000A80197010E94E622215030404040504066
:102E90002F3F31054105510509F008F484C060E871
:102EA00074E88EE190E0A80197010E94E62221508B
:102EB00030404040504082E0D81611F092E014C0FB
:102EC0002F3F31054105510509F008F474C060E257
:102ED00071EA87E090E0A80197010E94E622215064
:102EE00030404040504093E02F3F310541055105AF
:102EF00009F008F459C060E970ED83E090E0A801A2
:102F000097010E94E6222150304040405040DD2091
:102F100011F493E019C082E0D81611F094E014C0C7
:102F20002F3F31054105510509F008F4A5C068E4BB
:102F300078EE81E090E0A80197010E94E6222150FE
:102F400030404040504095E02F3F3105410551054C
:102F500059F150F164E274EF80E090E0A80197012C
:102F60000E94E6222150304040405040DD2011F0C8
:102F700096E001C094E02F3F310541055105A1F0D5
:102F800098F069E07DE380E090E0A80197010E945D
:102F9000E6222150304040405040DD2011F097E0C3
:102FA0000BC095E003C091E0DD2031F485B5887F4A
:102FB000982B95BD38C092E08091B100887F982B06
:102FC0009093B10030C07E0100E010E060E074E258
:102FD00084EF90E0A80197010E94E6222150304042
:102FE00040405040203080E0380781E0480780E0D2
:102FF000580710F491E00DC060E970ED83E090E0B7
:10300000A80197010E94E6222150304040405040E4
:1030100093E081E0D81639F480918100887F982B65
:103020009093810010C081E0D81669F0D81620F086
:1030300082E0D81619F511C027BD80916E0082601C
:1030400080936E001BC0309389002093880080918C
:103050006F00826080936F0011C02093B300D09303
:10306000B102C093B00281E08093B40280917000FD
:1030700082608093700002C094E09ECFDF91CF9178
:103080001F910F91FF90EF90DF900895E82FF0E0EF
:10309000EF52F44F8491813091F0813018F08230FA
:1030A00051F51DC080916E008D7F80936E00E09180
:1030B000A302F091A40290818091A5020CC080919E
:1030C0006F008D7F80936F00E091A602F091A702C0
:1030D00090818091A8028095892380830895109221
:1030E000B402E091A902F091AA0290818091AB0212
:1030F0008095892380830895E091C002F091C102F8
:103100009F012F5F3F4F3093C1022093C0028491F3
:1031100087FD47C02F5F3F4F3093C1022093C0020D
:1031200021503040F90194912091B0023091B102C8
:10313000782F60E0E92FF0E06E2B7F2B80E090E0AD
:1031400040E050E00E9465226C507E4F8F4F9F4FB1
:1031500028EE33E040E050E00E94C422C901DA01C9
:103160008093B6029093B702A093B802B093B902CD
:103170008091B6029091B702A091B802B091B902C5
:103180000097A105B105A1F581E090E0A0E0B0E0D5
:103190008093B6029093B702A093B802B093B9029D
:1031A0000895982F907F8F70903819F40E944618D8
:1031B000A3CF903969F42F5F3F4F3093C102209322
:1031C000C00221503040F90164910E94151794CF3C
:1031D000903E49F48091BE029091BF029093C1024B
:1031E0008093C00289CF903F09F086CF1092C2022F
:1031F00008956093BE027093BF026093C002709303
:10320000C1020E947C1881E08093C2020895CF938E
:10321000DF93C0E0D0E004C08C2F0E9446182196B6
:103220008091AF0290E0C817D907B4F31092C202A0
:10323000DF91CF9108951F920F920FB60F92112434
:103240008F939F93EF93FF93E091A302F091A402D9
:1032500080819091A50289278083FF91EF919F91B2
:103260008F910F900FBE0F901F9018951F920F9285
:103270000FB60F9211248F939F93EF93FF93E091DA
:10328000A602F091A70280819091A80289278083ED
:10329000FF91EF919F918F910F900FBE0F901F9014
:1032A00018951F920F920FB60F921124EF92FF9272
:1032B0000F931F932F933F934F935F936F937F933E
:1032C0008F939F93AF93BF93EF93FF938091B4023B
:1032D000882349F0E091A902F091AA02808190919F
:1032E000AB02892780838091C202882309F498C0A9
:1032F0008091B6029091B702A091B802B091B90244
:103300000097A105B10509F48BC08091B602909198
:10331000B702A091B802B091B9020197A109B10911
:103320008093B6029093B702A093B802B093B9020B
:103330008091B6029091B702A091B802B091B90203
:103340000097A105B10509F06BC08091B002909182
:10335000B1029093B3028093B2020E947C188091D4
:10336000B502882309F45CC02091B2023091B30207
:103370008091B0029091B1022817390709F450C02A
:103380008091BA029091BB02A091BC02B091BD02A3
:1033900080509040A240B04008F467C08091B002D5
:1033A0009091B1028050904408F45FC02091BA021D
:1033B0003091BB024091BC025091BD026091B002BD
:1033C0007091B102E090B202F090B3026E5F7F4F55
:1033D000769567957695679580E090E02C5F3F4FF6
:1033E0004F4F5F4FE3E05695479537952795EA9500
:1033F000D1F70E94652200E010E0A80197010E9429
:10340000C42295E0220F331F441F551F9A95D1F710
:103410002093BA023093BB024093BC025093BD028A
:103420008091B502882309F445C08091BA02909139
:10343000BB02A091BC02B091BD020097A105B105ED
:10344000C9F18091BA029091BB02A091BC02B091E7
:10345000BD020197A109B1098093BA029093BB0202
:10346000A093BC02B093BD0225C02091BA02309156
:10347000BB024091BC025091BD026091B0027091BC
:10348000B102E090B202F090B30280E090E00E94BE
:10349000652200E010E0A80197010E94C422C90142
:1034A000DA018093BA029093BB02A093BC02B0935E
:1034B000BD02B6CFFF91EF91BF91AF919F918F91D8
:1034C0007F916F915F914F913F912F911F910F913C
:1034D000FF90EF900F900FBE0F901F9018950F93D5
:1034E0001F93062F2091AF02233008F08BC0A22F2C
:1034F000B0E0CD018F52944FFC011491A455BD4F03
:103500006C932F5F2093AF02862F61E00E940C1E08
:10351000113031F1113020F0123009F073C046C083
:1035200014BC15BC84B5826084BD85B5816085BD41
:10353000202F30E0F901EE50F34FE491F0E0EE0F70
:10354000FF1FE252F34F859194919093A4028093D0
:10355000A3022A5F324FF90164916093A50252C021
:103560001092800010928100809181008860809389
:10357000810080918100816080938100202F30E064
:10358000F901EE50F34FE491F0E0EE0FFF1FE2522D
:10359000F34F859194919093A7028093A6022A5F9E
:1035A000324FF90164916093A8022CC01092B000D0
:1035B0001092B1008091B00082608093B000809141
:1035C000B10081608093B100202F30E0F901EE500E
:1035D000F34FE491F0E0EE0FFF1FE252F34F8591BD
:1035E00094919093AA028093A9022A5F324FF90125
:1035F00064916093AB0280E06CE30E94151780E059
:103600000E9446181F910F910895EF920F93FC01AD
:103610006623A9F0442399F0222389F0002379F04E
:103620006D3068F4453058F42D3048F4053038F4E6
:103630006287438724870587E68681E001C080E0B2
:103640000F91EF900895EF920F93FC0180E090E0CE
:10365000A8EDB1E480839183A283B38380E090E0FE
:10366000A4EAB2EC84839583A683B78384ED9EEFAE
:1036700091878087CF0163E042E02BE001E03CE3EB
:10368000E32E0E94051B0F91EF900895CF93DF93D7
:10369000FB018581C82FD0E0C053D84F448183817E
:1036A000433010F4445F21979E01280F311DCE0155
:1036B0009595879595958795280F391FCE016CE9CB
:1036C0007FEF0E94B122260F371FCE0160E971E023
:1036D0000E94B122260F371F8DE0489FC0011124A0
:1036E000039665E070E00E94B122C901860F971F22
:1036F00067E070E00E94B12290E0019667E070E020
:103700000E94B1228F5FDF91CF9108959B01CB0181
:1037100083709070892B39F4CB0164E670E00E94CD
:10372000B122892B41F440E0C90160E971E00E94B7
:10373000B122892B09F441E0842F0895FB016581B2
:103740002481223059F470E06053784F0E94861B28
:10375000882311F48CE108958DE10895822F90E083
:1037600081709070382F283028F020E0882309F4E9
:1037700021E0322F332311F48EE108958FE1089573
:10378000EF92FF920F931F93CF93DF93EC018B0186
:10379000FB01F480EA84FE1408F440C08C858F1588
:1037A000E8F1EF1410F4F816D8F1CE01B8010E9438
:1037B000461B482F91E0981BF8018381980F19163A
:1037C00014F080E005C0892F67E00E9490228F5F8F
:1037D000282F332727FD3095FE1481F48B8590E048
:1037E00028173907DCF082179307D4F04230C4F46D
:1037F00090E0F80182818230A0F012C08D8590E0C7
:10380000281739076CF08217930744F0423034F4DC
:1038100090E0F8018281882321F402C090E001C089
:1038200091E0892FDF91CF911F910F91FF90EF9041
:103830000895CF92DF92EF92FF920F931F93CF9351
:10384000DF936C01EB0179018A018981E80EF11C9B
:10385000011D111DC701F7FE03C0909581959F4F73
:103860006CE370E00E94B1228983C801B7012CE3A8
:1038700030E040E050E00E94E622C901DA012A81EE
:103880007C018D01E20EF11C011D111DC701F7FE27
:1038900003C0909581959F4F68E170E00E94B1222E
:1038A0008A83C801B70128E130E040E050E00E947F
:1038B000E622C901DA010097A105B10531F11B81AA
:1038C000120F1B83112381F48C8181508C838823F8
:1038D00029F48CE08C838D8181508D83C601BE01DB
:1038E0000E949E1B8B8311C0C601BE010E949E1BBD
:1038F000811758F491E09B838C818F5F8C838D308E
:1039000020F09C838D818F5F8D83DF91CF911F91FC
:103910000F91FF90EF90DF90CF9008950F931F933A
:10392000CF93DF93EC018B010E94C01B882341F0F1
:103930002E8530E040E050E0CE01B8010E94191C15
:10394000DF91CF911F910F910895823000F5E82FFC
:10395000F0E0EE0FFF1FED53FD4F7183608388236E
:1039600019F08130A1F408C0809169008C7F842B0C
:1039700080936900E89A089580916900440F551F6B
:10398000440F551F837F842B80936900E99A089523
:103990001F920F920FB60F9211242F933F934F93C4
:1039A0005F936F937F938F939F93AF93BF93EF93A7
:1039B000FF938091C3029091C402892B29F0E0917A
:1039C000C302F091C4020995FF91EF91BF91AF91AD
:1039D0009F918F917F916F915F914F913F912F9127
:1039E0000F900FBE0F901F9018951F920F920FB659
:1039F0000F9211242F933F934F935F936F937F9375
:103A00008F939F93AF93BF93EF93FF938091C502E2
:103A10009091C602892B29F0E091C502F091C6026F
:103A20000995FF91EF91BF91AF919F918F917F91F8
:103A30006F915F914F913F912F910F900FBE0F901B
:103A40001F9018951F920F920FB60F9211242F936B
:103A50003F938F939F93AF93BF938091CB029091AD
:103A6000CC02A091CD02B091CE023091CF0201964E
:103A7000A11DB11D232F2D5F2D3720F02D5701964D
:103A8000A11DB11D2093CF028093CB029093CC0255
:103A9000A093CD02B093CE028091C7029091C8024C
:103AA000A091C902B091CA020196A11DB11D8093D7
:103AB000C7029093C802A093C902B093CA02BF91F3
:103AC000AF919F918F913F912F910F900FBE0F90CB
:103AD0001F9018958FB7F8942091CB023091CC02AB
:103AE0004091CD025091CE028FBFB901CA01089515
:103AF0009B01AC017FB7F8948091C7029091C802F6
:103B0000A091C902B091CA0266B5A89B05C06F3FDB
:103B100019F00196A11DB11D7FBFBA2FA92F982FB3
:103B20008827860F911DA11DB11D62E0880F991F86
:103B3000AA1FBB1F6A95D1F7BC012DC0FFB7F8942F
:103B40008091C7029091C802A091C902B091CA02A7
:103B5000E6B5A89B05C0EF3F19F00196A11DB11D68
:103B6000FFBFBA2FA92F982F88278E0F911DA11D57
:103B7000B11DE2E0880F991FAA1FBB1FEA95D1F77C
:103B8000861B970B885E9340C8F22150304040401E
:103B9000504068517C4F211531054105510571F6A2
:103BA0000895789484B5826084BD84B5816084BDB5
:103BB00085B5826085BD85B5816085BDEEE6F0E0A6
:103BC000808181608083E1E8F0E010828081826002
:103BD0008083808181608083E0E8F0E08081816083
:103BE0008083E1EBF0E0808184608083E0EBF0E0B3
:103BF000808181608083EAE7F0E080818460808357
:103C00008081826080838081816080838081806800
:103C100080831092C1000895CF93DF93482F50E026
:103C2000CA018A5F924FFC0134914E50534FFA0102
:103C30008491882369F190E0880F991FFC01EC5270
:103C4000F34FA591B491FC01E252F34FC591D49189
:103C5000662351F42FB7F8948C91932F9095892374
:103C60008C93888189230BC0623061F42FB7F8945C
:103C70008C91932F909589238C938881832B8883B3
:103C80002FBF06C09FB7F8948C91832B8C939FBF56
:103C9000DF91CF910895482F50E0CA01865E924F80
:103CA000FC012491CA018A5F924FFC0194914E500D
:103CB000534FFA013491332309F440C0222351F1C8
:103CC000233071F0243028F42130A1F0223011F596
:103CD00014C02630B1F02730C1F02430D9F404C02C
:103CE000809180008F7703C0809180008F7D8093CA
:103CF000800010C084B58F7702C084B58F7D84BDED
:103D000009C08091B0008F7703C08091B0008F7D93
:103D10008093B000E32FF0E0EE0FFF1FE252F34F6D
:103D2000A591B4912FB7F894662321F48C919095C6
:103D3000892302C08C91892B8C932FBF0895682F03
:103D400070E0CB01865E924FFC012491CB018A5F2B
:103D5000924FFC0144916E50734FFB019491992353
:103D600019F420E030E03CC0222351F1233071F0FF
:103D7000243028F42130A1F0223011F514C026306F
:103D8000B1F02730C1F02430D9F404C08091800014
:103D90008F7703C0809180008F7D8093800010C05A
:103DA00084B58F7702C084B58F7D84BD09C08091B2
:103DB000B0008F7703C08091B0008F7D8093B000FA
:103DC000892F90E0880F991F8851934FFC01A5918E
:103DD000B4918C9120E030E0842311F021E030E0B8
:103DE000C9010895BF92CF92DF92EF92FF920F9395
:103DF0001F93CF93DF93E82EF62EB42EC7E0D0E0CA
:103E0000022F10E087E0C82ED12CBB2059F4B60158
:103E10006C1B7D0BC80102C0959587956A95E2F7EA
:103E2000BC0107C0B8010C2E02C0759567950A94B5
:103E3000E2F761708E2D0E944B1E8F2D61E00E9473
:103E40004B1E8F2D60E00E944B1E21979FEFCF3FAE
:103E5000D907D9F6DF91CF911F910F91FF90EF9085
:103E6000DF90CF90BF90089508951F920F920FB6E4
:103E70000F9211242F933F934F938F939F93EF9320
:103E8000FF938091C00082FD1DC04091C60020912B
:103E90001003309111032F5F3F4F2F7330708091CB
:103EA0001203909113032817390771F0E091100362
:103EB000F0911103E053FD4F4083309311032093A1
:103EC000100302C08091C600FF91EF919F918F91E6
:103ED0004F913F912F910F900FBE0F901F9018950B
:103EE000E0916403F0916503E05CFF4F8191919153
:103EF00020813181821B930B8F739070892B11F07D
:103F00000E94341F08951F920F920FB60F92112432
:103F10002F933F938F939F93EF93FF93209154039D
:103F20003091550380915603909157032817390714
:103F300031F48091C1008F7D8093C10014C0E09165
:103F40005603F0915703EC5EFC4F2081809156039D
:103F50009091570301968F739070909357038093BD
:103F600056032093C600FF91EF919F918F913F914F
:103F70002F910F900FBE0F901F901895AF92BF9288
:103F8000DF92EF92FF920F931F93CF93DF93EC0199
:103F90007A018B01DD24403081EE580780E068070C
:103FA00080E0780711F0DD24D39491E0A92EB12CA4
:103FB000EC89FD89DD2069F0C50108A002C0880FE9
:103FC000991F0A94E2F7808360E079E08DE390E046
:103FD00005C0108260E874E88EE190E0A8019701C6
:103FE0000E94C42221503040404050405695479591
:103FF0003795279580E12030380720F0DD2011F03B
:10400000DD24D6CFE889F9893083EA89FB892083CA
:1040100019A2EE89FF89408121E030E0C9010C8CB2
:1040200002C0880F991F0A94E2F7482B4083EE895B
:10403000FF894081C9010D8C02C0880F991F0A9425
:10404000E2F7482B4083EE89FF894081C9010E8C3D
:1040500002C0880F991F0A94E2F7482B4083EE892B
:10406000FF8980810F8C02C0220F331F0A94E2F770
:10407000209528232083DF91CF911F910F91FF90EE
:10408000EF90DF90BF90AF900895DC011C96ED910A
:10409000FC911D97E05CFF4F2191319180819181CE
:1040A000281B390B2F733070C9010895DC011C9651
:1040B000ED91FC911D97E05CFF4F20813181E05430
:1040C000F040DF01AE5BBF4F8D919C911197281797
:1040D000390719F42FEF3FEF07C08D919C91E80F3E
:1040E000F91F8081282F30E0C9010895DC011C965A
:1040F000ED91FC911D97E05CFF4F20813181E054F0
:10410000F040DF01AE5BBF4F8D919C911197281756
:10411000390719F42FEF3FEF10C08D919C91119743
:10412000E80FF91F20818D919C91119701968F7353
:10413000907011969C938E9330E0C9010895DC0134
:1041400091968C919197882339F05496ED91FC913A
:104150005597808186FFF9CF91961C920895CF9351
:10416000DF93EC01EE85FF85E05CFF4F208131811C
:10417000E054F0402F5F3F4F2F733070DF01AE5B94
:10418000BF4F8D919C91119728173907D1F3E05CAF
:10419000FF4F80819181E054F040E80FF91F608368
:1041A000EE85FF85E05CFF4F31832083EE89FF8938
:1041B000208181E090E00F8C02C0880F991F0A9443
:1041C000E2F7282B208381E089A3EC89FD89808197
:1041D0008064808381E090E0DF91CF910895109218
:1041E0005B0310925A0388EE93E0A0E0B0E0809366
:1041F0005C0390935D03A0935E03B0935F0388E13B
:1042000091E0909359038093580380ED92E090934E
:1042100065038093640384E193E090936703809344
:10422000660385EC90E0909369038093680384ECC7
:1042300090E090936B0380936A0380EC90E09093FE
:104240006D0380936C0381EC90E090936F038093F7
:104250006E0382EC90E0909371038093700386EC80
:1042600090E0909373038093720384E080937403CF
:1042700083E08093750387E08093760385E08093E5
:10428000770381E0809378030895CF92DF92EF92D5
:10429000FF920F931F93CF93DF937C016B018A01F1
:1042A000C0E0D0E00FC0D6016D916D01D701ED9156
:1042B000FC910190F081E02DC7010995C80FD91F2D
:1042C000015010400115110571F7CE01DF91CF911A
:1042D0001F910F91FF90EF90DF90CF900895DC0138
:1042E000ED91FC910190F081E02D09950895EF92F8
:1042F000FF920F931F938C01DC01ED91FC910190D3
:10430000F081E02D6DE009957C01D801ED91FC91E3
:104310000190F081E02DC8016AE009959C012E0D05
:104320003F1DC9011F910F91FF90EF900895CF930A
:10433000DF93EC016115710519F420E030E00FC046
:10434000DB010D900020E9F71197A61BB70BE88160
:10435000F9810280F381E02DAD0109959C01C9012D
:10436000DF91CF9108954F925F927F928F929F92AB
:10437000AF92BF92CF92DF92EF92FF920F931F9373
:10438000DF93CF93CDB7DEB7A1970FB6F894DEBF1A
:104390000FBECDBF2C01742ECB01223008F42AE0D1
:1043A00019A231E2C32ED12CCC0EDD1E822E99240F
:1043B000AA24BB24672D752FA50194010E94C42255
:1043C00079018A01C801B701A50194010E94652203
:1043D000472D461B0894C108D1084A3014F4405DAB
:1043E00001C0495CF6014083E114F10401051105A7
:1043F00021F07E2C5F2DC801DDCFC201B6010E94E5
:104400009721A1960FB6F894DEBF0FBECDBFCF9116
:10441000DF911F910F91FF90EF90DF90CF90BF90B1
:10442000AF909F908F907F905F904F900895DC01A8
:104430002115310541F4ED91FC910190F081E02DC1
:10444000642F099508950E94B3210895EF92FF9279
:104450000F931F939A01E62EFF2400E010E0B801AD
:10446000A7010E9417221F910F91FF90EF900895CE
:10447000CF92DF92EF92FF920F931F936C01E62E83
:104480009A01FF2400E010E0B801A7010E94172262
:104490008C01C6010E947721080F191FC8011F91C6
:1044A0000F91FF90EF90DF90CF900895CF93DF931F
:1044B0000E94D11D0E94B610C0E7DFE10E94A50F47
:1044C0002097E1F30E94701FF9CF629FD001739F84
:1044D000F001829FE00DF11D649FE00DF11D929FA0
:1044E000F00D839FF00D749FF00D659FF00D9927DF
:1044F000729FB00DE11DF91F639FB00DE11DF91F03
:10450000BD01CF0111240895991B79E004C0991FC2
:10451000961708F0961B881F7A95C9F7809508951D
:1045200087FB082E062687FD819567FD6195ECDFE8
:104530000EF4919507FC81950895AA1BBB1B51E1D0
:1045400007C0AA1FBB1FA617B70710F0A61BB70B03
:10455000881F991F5A95A9F780959095BC01CD01A8
:10456000089597FB092E07260AD077FD04D0E5DFD2
:1045700006D000201AF4709561957F4F0895F6F7E4
:10458000909581959F4F0895A1E21A2EAA1BBB1BFF
:10459000FD010DC0AA1FBB1FEE1FFF1FA217B3070F
:1045A000E407F50720F0A21BB30BE40BF50B661F25
:1045B000771F881F991F1A9469F7609570958095E9
:1045C00090959B01AC01BD01CF01089597FB092E89
:1045D00005260ED057FD04D0D7DF0AD0001C38F4D2
:1045E00050954095309521953F4F4F4F5F4F08951F
:1045F000F6F790958095709561957F4F8F4F9F4FFF
:104600000895EE0FFF1F0590F491E02D0994F894A2
:02461000FFCFDA
:1046120001078813000000004A141914D213DB1397
:10462200F013011400000000AF2045214520762040
:0446320056209F204F
:00000001FF
